:020000040000fa
:080000000002040000000000f2
:020000040000fa
:0400080042030000af
:020000040000fa
:04000c008403000069
:020000040000fa
:04001000c403000025
:020000040000fa
:040014006203000083
:020000040000fa
:04001800a40300003d
:020000040000fa
:04001c0008050000d3
:020000040000fa
:04002000e4030000f5
:020000040000fa
:0400240008050000cb
:020000040000fa
:0400280008050000c7
:020000040000fa
:04002c0008050000c3
:020000040000fa
:0400300008050000bf
:020000040000fa
:0400340008050000bb
:020000040000fa
:0400380008050000b7
:020000040000fa
:04003c0008050000b3
:020000040000fa
:0400400008050000af
:020000040000fa
:0400440008050000ab
:020000040000fa
:0400480008050000a7
:020000040000fa
:04004c0008050000a3
:020000040000fa
:04005000080500009f
:020000040000fa
:040054007e04000026
:020000040000fa
:040058001e04000082
:020000040000fa
:04005c000805000093
:020000040000fa
:04006000080500008f
:020000040000fa
:04006400080500008b
:020000040000fa
:040068000805000087
:020000040000fa
:04006c000805000083
:020000040000fa
:04007000080500007f
:020000040000fa
:04007400080500007b
:020000040000fa
:040078000805000077
:020000040000fa
:04007c000805000073
:020000040000fa
:04008000080500006f
:020000040000fa
:04008400080500006b
:020000040000fa
:040088000805000067
:020000040000fa
:04008c000805000063
:020000040000fa
:04009000080500005f
:020000040000fa
:04009400080500005b
:020000040000fa
:040098000805000057
:020000040000fa
:04009c000805000053
:020000040000fa
:0400a000080500004f
:020000040000fa
:0400a400080500004b
:020000040000fa
:0400a8000805000047
:020000040000fa
:0400ac000805000043
:020000040000fa
:0400b000080500003f
:020000040000fa
:0400b400080500003b
:020000040000fa
:0400b8000805000037
:020000040000fa
:0400bc000805000033
:020000040000fa
:0400c000080500002f
:020000040000fa
:0400c400080500002b
:020000040000fa
:0400c8000805000027
:020000040000fa
:0400cc000805000023
:020000040000fa
:0400d000080500001f
:020000040000fa
:0400d400080500001b
:020000040000fa
:0400d8000805000017
:020000040000fa
:0400dc000805000013
:020000040000fa
:0400e000080500000f
:020000040000fa
:0400e400080500000b
:020000040000fa
:0400e8000805000007
:020000040000fa
:0400ec00ea04000022
:020000040000fa
:0400f00008050000ff
:020000040000fa
:0400f40008050000fb
:020000040000fa
:0400f80008050000f7
:020000040000fa
:0400fc0008050000f3
:020000040000fa
:0401000008050000ee
:020000040000fa
:0401040008050000ea
:020000040000fa
:0401080008050000e6
:020000040000fa
:04010c0008050000e2
:020000040000fa
:0401100008050000de
:020000040000fa
:0401140008050000da
:020000040000fa
:0401180008050000d6
:020000040000fa
:04011c0008050000d2
:020000040000fa
:0401200008050000ce
:020000040000fa
:0401240008050000ca
:020000040000fa
:0401280008050000c6
:020000040000fa
:04012c0008050000c2
:020000040000fa
:0401300008050000be
:020000040000fa
:0401340008050000ba
:020000040000fa
:0401380008050000b6
:020000040000fa
:04013c0008050000b2
:020000040000fa
:0401400008050000ae
:020000040000fa
:0401440008050000aa
:020000040000fa
:0401480008050000a6
:020000040000fa
:04014c0008050000a2
:020000040000fa
:04015000080500009e
:020000040000fa
:04015400080500009a
:020000040000fa
:040158000805000096
:020000040000fa
:04015c000805000092
:020000040000fa
:04016000080500008e
:020000040000fa
:04016400080500008a
:020000040000fa
:040168000805000086
:020000040000fa
:04016c000805000082
:020000040000fa
:04017000080500007e
:020000040000fa
:04017400080500007a
:020000040000fa
:040178000805000076
:020000040000fa
:04017c000805000072
:020000040000fa
:04018000080500006e
:020000040000fa
:04018400080500006a
:020000040000fa
:040188000805000066
:020000040000fa
:04018c000805000062
:020000040000fa
:04019000080500005e
:020000040000fa
:04019400080500005a
:020000040000fa
:040198000805000056
:020000040000fa
:04019c000805000052
:020000040000fa
:0401a000080500004e
:020000040000fa
:0401a400080500004a
:020000040000fa
:0401a8000805000046
:020000040000fa
:0401ac000805000042
:020000040000fa
:0401b000080500003e
:020000040000fa
:0401b400080500003a
:020000040000fa
:0401b8000805000036
:020000040000fa
:0401bc000805000032
:020000040000fa
:0401c000080500002e
:020000040000fa
:0401c400080500002a
:020000040000fa
:0401c8000805000026
:020000040000fa
:0401cc000805000022
:020000040000fa
:0401d000080500001e
:020000040000fa
:0401d400080500001a
:020000040000fa
:0401d8000805000016
:020000040000fa
:0401dc000805000012
:020000040000fa
:0401e000080500000e
:020000040000fa
:0401e400080500000a
:020000040000fa
:0401e8000805000006
:020000040000fa
:0401ec000805000002
:020000040000fa
:0401f00008050000fe
:020000040000fa
:0401f40008050000fa
:020000040000fa
:0401f80008050000f6
:020000040000fa
:0401fc0008050000f2
:020000040000fa
:0402000008050000ed
:020000040000fa
:0402040008050000e9
:020000040000fa
:0402080008050000e5
:020000040000fa
:04020c0008050000e1
:020000040000fa
:0402100008050000dd
:020000040000fa
:0402140008050000d9
:020000040000fa
:0402180008050000d5
:020000040000fa
:04021c0008050000d1
:020000040000fa
:0402200008050000cd
:020000040000fa
:0402240008050000c9
:020000040000fa
:0402280008050000c5
:020000040000fa
:04022c0008050000c1
:020000040000fa
:0402300008050000bd
:020000040000fa
:0402340008050000b9
:020000040000fa
:0402380008050000b5
:020000040000fa
:04023c0008050000b1
:020000040000fa
:0402400008050000ad
:020000040000fa
:0402440008050000a9
:020000040000fa
:0402480008050000a5
:020000040000fa
:04024c0008050000a1
:020000040000fa
:04025000080500009d
:020000040000fa
:040254000805000099
:020000040000fa
:040258000805000095
:020000040000fa
:04025c000805000091
:020000040000fa
:04026000080500008d
:020000040000fa
:040264000805000089
:020000040000fa
:040268000805000085
:020000040000fa
:04026c000805000081
:020000040000fa
:04027000080500007d
:020000040000fa
:040274000805000079
:020000040000fa
:040278000805000075
:020000040000fa
:04027c000805000071
:020000040000fa
:04028000080500006d
:020000040000fa
:040284000805000069
:020000040000fa
:040288000805000065
:020000040000fa
:04028c000805000061
:020000040000fa
:04029000080500005d
:020000040000fa
:040294000805000059
:020000040000fa
:040298000805000055
:020000040000fa
:04029c000805000051
:020000040000fa
:0402a000080500004d
:020000040000fa
:0402a4000805000049
:020000040000fa
:0402a8000805000045
:020000040000fa
:0402ac000805000041
:020000040000fa
:0402b000080500003d
:020000040000fa
:0402b4000805000039
:020000040000fa
:0402b8000805000035
:020000040000fa
:0402bc000805000031
:020000040000fa
:0402c000080500002d
:020000040000fa
:0402c4000805000029
:020000040000fa
:0402c8000805000025
:020000040000fa
:0402cc000805000021
:020000040000fa
:0402d000080500001d
:020000040000fa
:0402d4000805000019
:020000040000fa
:0402d8000805000015
:020000040000fa
:0402dc000805000011
:020000040000fa
:0402e000080500000d
:020000040000fa
:0402e4000805000009
:020000040000fa
:0402e8000805000005
:020000040000fa
:0402ec000805000001
:020000040000fa
:0402f00008050000fd
:020000040000fa
:0402f40008050000f9
:020000040000fa
:0402f80008050000f5
:020000040000fa
:0402fc0008050000f1
:020000040000fa
:0403000008050000ec
:020000040000fa
:0403040008050000e8
:020000040000fa
:0403080008050000e4
:020000040000fa
:04030c0008050000e0
:020000040000fa
:0403100008050000dc
:020000040000fa
:0403140008050000d8
:020000040000fa
:0403180008050000d4
:020000040000fa
:04031c0000050000d8
:020000040000fa
:0403200008050000cc
:020000040000fa
:0403240008050000c8
:020000040000fa
:0403280008050000c4
:020000040000fa
:04032c0008050000c0
:020000040000fa
:0403300008050000bc
:020000040000fa
:0403340008050000b8
:020000040000fa
:100400004f1a21000eff26000e0188000000000098
:10041000000020000000e000020032000001200087
:100420002002880014000700a00107000000e0007f
:1004300003003a00a055220001002000020037000e
:100440000000200001002000810f70000100320038
:100450000f000700000020000000e0000200320052
:10046000000002000000000056260200000000000c
:100470000040da000000fe00a00920000000e000bb
:1004800002003200002020009001880000000600d9
:10049000a1028800800478000000eb001f003700f4
:1004a000e284440054a0b4009905ba00e2844400f8
:1004b00054a0b4009906ba00e284440054a0b400e9
:1004c0000006eb00476fde00fd07b200ae018800ba
:1004d000636ce10003003a000ad801000000eb0061
:1004e0000e003700606ce10008003a00004deb00a0
:1004f0000a05e800020039003420ec000af0a000f0
:100500008b05e900f9ff3e00040037006168e10057
:10051000010032000086eb000b00070019c7ba008b
:100520001905ba000e04e00003003a000a00e000da
:10053000dbff3a0000000600fe07b200ae028800b2
:100540008a047800f5ff37000cd0a300e20f4d00bd
:100550001c003b0089027800354dba000a05e8000e
:10056000020039003420ec000af0a0008b05e900fd
:100570000f003200254dba000a05e80002003900dc
:100580003420ec000af0a0008b05e90008003200de
:100590000c00e0000600320015cdba000a05e800a4
:1005a000020039003420ec000af0a0008b05e900bd
:1005b0008984e80054a0b4000b00e000e2ff3a0098
:1005c000000006009902ba00055d78008b05e9007d
:1005d000f7ff3200c82ade00055d78008b05e900d0
:1005e000f3ff32000c00e000f1ff320019ddba0029
:1005f000eeff3700702204000000000036270400e0
:1006000000000000ca22040000000000e4220400f0
:100610000000000016230400000000004423040032
:100620000000000074230400000000008023040088
:1006300000000000a6230400000000008a2304003c
:100640000000000040270400000000004a270400ca
:10065000000000005427040000000000981f040060
:1006600000000000b61f0400000000009216040005
:10067000000000003e110400000000002e0d0400e8
:10068000000000003600f800809fbe00829fbe0080
:10069000849fbe00869fbe000000fa00c028a9000b
:1006a0000000eb005a1207000080fa004f03be0062
:1006b0004f02be004f01be004f00be003600f900e1
:1006c000004006003600f800809fbe00829fbe00fa
:1006d000849fbe00869fbe000000fa0051120700f2
:1006e000c048a90010002000491207000080fa004d
:1006f0004f03be004f02be004f01be004f00be00c0
:100700003600f900004006003600f800809fbe0069
:10071000829fbe00849fbe00869fbe000000fa003c
:10072000c068a90020002000391207000080fa00ec
:100730004f03be004f02be004f01be004f00be007f
:100740003600f900004006003600f800809fbe0029
:10075000829fbe00849fbe00869fbe000000fa00fc
:10076000c088a90030002000291207000080fa008c
:100770004f03be004f02be004f01be004f00be003f
:100780003600f900004006003600f800809fbe00e9
:10079000829fbe00849fbe00869fbe000000fa00bc
:1007a000c608a90070002000191207000080fa0096
:1007b0004f03be004f02be004f01be004f00be00ff
:1007c0003600f900004006003600f800809fbe00a9
:1007d000829fbe00849fbe00869fbe000000fa007c
:1007e0002146800000102000008060000000e00032
:1007f00003003200c508a900c00020000412070051
:1008000020468000700060000000e000030032001d
:10081000c488a900a0002000fd1107002046800028
:10082000610060000000e00003003200c408a9007d
:10083000b0002000f6110700ffff37003600f80077
:10084000809fbe00829fbe00849fbe00869fbe0028
:100850000000fa00508080000000e000020032003a
:1008600050808000000001003180800020808000e6
:10087000808f500002003a002188a900180037003c
:100880000188a90010003700308080009040780077
:100890008180fb00411288000000e8003080880061
:1008a0003180800030112100808f500002003a001a
:1008b000400121003080880031808000208080004d
:1008c000808f500005003200f01180007000600041
:1008d0000000e000ecff32000100370000000000e3
:1008e0000080fa004f03be004f02be004f01be0061
:1008f0004f00be003600f900004006003600f80048
:10090000809fbe00829fbe00849fbe00869fbe0067
:100910000000fa00608080000000e0000200320069
:1009200060808000000001000168a9001e003700ff
:10093000008080002112800081407800014878000a
:1009400001808000b0112100808f5000090032002a
:10095000008080008000e80010808000808f5000c0
:1009600004003200008080000000e8000080880061
:100970000d00370001808000b0112100808f5000f1
:1009800007003a001180800030112100808f500054
:10099000030032003011210000808800020037007f
:1009a00010c0b30008f0b700f011800062006000d2
:1009b0000000e000deff32000080fa004f03be00be
:1009c0004f02be004f01be004f00be003600f900ce
:1009d00000400600801f78000000fa00e01180004f
:1009e000620060000000e000010032003c22a9002b
:1009f0000628a9000080fa004f0078000040060099
:100a00000000fa0017a8a9000080fa0000400600c4
:100a10000040da000000fe000a00fa001100200089
:100a2000b1bf9f00c0bf9f006a805700dd0907006b
:100a30004fb897000080fa00000006000a00fa0094
:100a4000200798003107980042079800be009000e8
:100a5000110798000000eb00000f78000c00370031
:100a6000000000007a0d07000004a2000004e0006e
:100a7000fcff3a001e009000104078009e0090009d
:100a80008100e80011079800510d07001e0fe800d3
:100a90004e0090009e007800808f5000f0ff3900db
:100aa0004e0090000080fa000000060000000500e3
:100ab0000001be001b0007000470a70003f0a100a6
:100ac00003f8a30013003a006509b10010003200da
:100ad000090035006928e100020035000100280006
:100ae0000000050000004000818048008502e90008
:100af000fcff3a0000000600f88f420005003500b8
:100b00008100d1000080d3008502e800fcff3a009c
:100b1000000006008000eb00000005006011b80036
:100b20006a033700c70ade00f107b200f50fb20012
:100b300008003200e1cf4200020032000170a00044
:100b400024000500810f7000010032000408050038
:100b500044000500810f700002003a0014000500f7
:100b60008502e9000000400081c04800fcff3b0016
:100b70000170a0002400050007f82700078361002a
:100b80000638e10004003a00f7072000878361007f
:100b90008703710001003a0003f0a200889fbe00a5
:100ba0008a9fbe008c9fbe00470ade000480a10021
:100bb000c71ade000580a100070028000785600035
:100bc00087856100f70f20000720e1009e003200ba
:100bd0000728e1009c003200010678000400e000d4
:100be000b4003200f7072000878060000170a00089
:100bf0000500e000c0003200f70720008781610097
:100c00000370a000050652000f003a000b50e100ef
:100c10000b0032000308e10002003a000200e1008c
:100c20007e0032000204500083845800040031002a
:100c30000001fd008101fd008402fd008a05fd0028
:100c40006044b800210037000520e10005003d00a8
:100c50000001fd008101fd008402fd008a05fd0008
:100c6000050652007a60e100050035000170a10020
:100c70004722dd00848070008a80700063003700a6
:100c80006044b800ef02660007ff2f000706660009
:100c90000500e00006003400f08312008714dd0038
:100ca0000511de00071bdd00060171008519de005d
:100cb0007060e100050035000904780082047800c6
:100cc000030178008001eb00700656000b50e10034
:100cd00003003a000200400083804800040037000f
:100ce00060041400e0841c00020058008380580057
:100cf0000188a300060032008100d1000080d300eb
:100d00008984d3000884d3000402e8002700370058
:100d10000178a30025003a000100e0000300320042
:100d20008186cf00698656000a0037008c002000bb
:100d30000000e00004003a00090078008804780010
:100d40000004eb00700252008086cf000d064600c2
:100d50000c06e9007060e1000600350080007800b4
:100d600009007800880478000004eb007006560043
:100d7000700252000c00e0000c0034008c08dd0012
:100d8000f00316000703de00868070000c00dd0013
:100d9000074bde00060070008c4cdd000743de00d0
:100da000868474000c44dd000c0252006120e100d6
:100db0002000350061016000070028008781640081
:100dc000f7ff270087836400070374000300e00037
:100dd0000600320082037300040032000000e800c5
:100de000e08048000188a3000e003a00f70f2000c1
:100df0000720e1004a003d000170a1004722dd000c
:100e0000810072008a8070000000be004f06be00a4
:100e10004f05be004f04be00000006006000b80091
:100e2000faff37008100d1000080d3000402e800ff
:100e3000eeff37000401780089017400a10107006a
:100e40008a807000f1ff3700f70107000702780081
:100e50000001fd008101fd00f30107008702780019
:100e6000850372000778a300040032000001fd0032
:100e70008101fd0006020700e4ff370085036200e0
:100e80000768a300080032000b50e10003003200a5
:100e9000f0ff2f00f1ff2700dcff37000001fd000d
:100ea0008101fd00d9ff37000468a300d7ff32009d
:100eb000faff3700f8ff2700888360000b003a0034
:100ec0000000e00009003a0083036400828373009d
:100ed000020032000200be00ccff37000b50e100e0
:100ee000ceff3a000200be00c8ff37001400200009
:100ef000810064003eff3700f8ff2700888361000f
:100f000004003a000200e00002003a008c00780081
:100f1000beff3700150020008301640039ff370051
:100f200001f827000000200081007500b7ff37009e
:100f3000889fbe008a9fbe008c9fbe001b002000c1
:100f40000202be000586680006002800060666004c
:100f50004709de00f20fb200820032000243e800cf
:100f600080003200c729de00f30fb2007d0032009e
:100f70000343e8007b003200f107b2000170a000db
:100f8000f507b2000570a000c708dd004903de00c8
:100f9000868070004700dd00c72add004923de009f
:100fa000868272004722dd000305510004035000d1
:100fb0008583580003003100000040008180480014
:100fc0000a05e9008c1f78008a9fbe0004005000cb
:100fd000858058000402420085824a0000004000db
:100fe000818048000005eb000004be006033b800bb
:100ff0000406be000d48e10056003100050009005e
:101000004dccd8000c01b8000d02b800848141001d
:1010100060824a008283530003045c0084845c0085
:1010200060055d000a00e00025003a0080057800b8
:101030000d40e10049003100880078000700780089
:10104000050009004d88d8000c01b8000d02b80059
:101050008481410060824a006003110083835b0049
:1010600004045c00e0845c000900e00021003a0018
:101070004f01be000300e0002b003200e3016000de
:10108000070673008c81710001003200640070005b
:101090004200de004e5edd000c007000c258de0033
:1010a00001e0a00083010700cf017800818071007a
:1010b0004f06be004f05be004f04be0000000600f4
:1010c0008c8343000d044c00e0844c0060054d000f
:1010d0000000e9000a00e000d4ff32008c834300e6
:1010e0000d044c00e0844c0060054d000000e90058
:1010f000ceff37000c0343008d834b0060044c008f
:10110000e0844c000000e9000900e000d8ff320054
:101110000c0343008d834b0060044c00e0844c00c2
:101120000000e900d2ff37004200de004e5edd0025
:101130000c007000c258de0001e0a000cf01780072
:101140000300e000daff320060001000e0801800c9
:10115000d7ff3700f0ff2f00aaff3700f0ff2f0066
:10116000b9ff37000404be002f010700870678008e
:101170000004fd008104fd002b01070007836600c9
:101180000678a300030032000960a7000800be0033
:101190002c0037000d78a300020032000800be00ca
:1011a000280037000778a30026003a0001f0a100cc
:1011b00009f0a1000668a30003003200f1ff270038
:1011c000f0ff2f00baff37000d68a30003003200c4
:1011d0000800be008c807000b5ff37000768a300d0
:1011e00007003a000648a30003003200f1ff270081
:1011f000f0ff2f00aeff37000d48a30003003200c0
:101200006000b8008c807000a9ff37000748a30079
:101210000400320001f82700000020008c807000dc
:10122000a3ff3700760107000004fd008104fd00e4
:1012300002057800720107000802be008a017800ea
:1012400059ff37000160a000120220009280880040
:1012500097ff37000100e000120032000500e000b7
:1012600010003200889fbe008a9fbe008c9fbe0087
:101270000006eb0001f8a30003003200600010003c
:10128000e08018000cf0a00005f8a3000300320075
:1012900060021200e0821a000cf0a2008005eb0050
:1012a00041ff37006000b8000200050003836800ba
:1012b0000700280007036300470ade000480a1003e
:1012c000c71ade000580a100f70f20000720e1000b
:1012d000420032000728e10040003200889fbe0033
:1012e0008a9fbe008c1f7800f107b200f307b2009e
:1012f0000400e000640032000170a0000500e0007e
:10130000680032000370a00085054200eb07b100c1
:101310000204b8000302b8008484440060854a00d7
:10132000020ab800848444000a854a00030ab8000f
:1013300004054500040033000804d0008984d2006d
:101340000a85d2008b05e9006158e1003d003500b7
:10135000021020000901610003082000898161005a
:10136000f70720008783640008867300c84cde00fe
:10137000c853dd00878474004855de000300e00098
:101380000600320082037600040032008904e8007f
:1013900060054d000a88a3000c003a00f70f2000fa
:1013a0000758e10044003d000a70a100c75ddd0060
:1013b0000a8575008a007300090078004f067800de
:1013c0004f05be004f04be00000006000a05d10014
:1013d0008984d3008b05e800f0ff3700881f780070
:1013e0000604780090000700070278000001fd0065
:1013f0008101fd008c0007008702780085037200e0
:101400000778a300050032000001fd008101fd0006
:101410009f0007004f04780000000600850372005b
:101420000748a30003003200f0ff2f00f1ff270060
:10143000f8ff37000000200001f8270088807000c6
:10144000f4ff3700880178004848dd008081710092
:101450004848de00c850dd0001007000c850de00c2
:10146000060478000b0178001600070088807000e1
:10147000d2ff37000500e000050032001700200011
:101480003a0007009dff370081037000f9ff3a0022
:10149000860078004f0678004f05be004f04be005e
:1014a0000000050083037100f9ff320027002000cf
:1014b0002e00070094ff370001f827008680700097
:1014c000f4ff37000100e000260032006101110046
:1014d0007810e10023003c006022b8007010e100a9
:1014e0000400350080027800010078008000eb00e5
:1014f000700151000200e000090034007003110087
:10150000062add00822ade008603dd008782720063
:101510000200de00860bdd00070070008208de009e
:1015200084817100f4ff27000482620084817100cd
:1015300004002800848262006102600005f0a600b9
:101540000000060004827100070032000000e8007d
:10155000e0804800000006000002be006000b80005
:10156000efff37006000b80000000600889fbe0053
:101570000004eb006138e10016003a000100e000d1
:1015800008003a00c800de004800dd0088002000a6
:101590000100e00003003a00c800de004800dd0062
:1015a000680444008184cf00e984540006003400bc
:1015b0008908dd00f08314008703de008780700057
:1015c0000900dd0009044400610214004f04be005c
:1015d000000006000300e00008003a00c811de0029
:1015e0004811dd00880020000300e00003003a00fd
:1015f000c811de004811dd00680444008384cf0078
:10160000e9845400060034008919dd00f0831400d9
:101610008713de00878171000911dd000904440091
:10162000e1021400e9ff37002700200001f0a700c5
:1016300017002000470bde00f60fb2000400320056
:101640000643e8000a0032004702b300000006002b
:1016500001037800f607b2000603700002003a00aa
:101660000703b300000006008702b3000000060075
:1016700001037800f607b200060370000200320092
:101680000770a000000006000760a0000000060030
:101690000478a300040032000578a30003003200a0
:1016a0000168a30001003a000200be000160a00032
:1016b0000000060081017000270032008002eb006c
:1016c00001f8a3000300320060001000e080180061
:1016d00015002000f4072000020242002000340020
:1016e000f703200087036000060420000003630066
:1016f00002082000000161004700de00c909dd008a
:1017000000807100c708de000600e000080032001b
:1017100087037100060032001000b0000180b000a5
:101720000188a30002003200c108de000402e800c4
:10173000f107b200f30f20000320e10003003d0099
:101740004722dd00810072002900370001f82700e0
:101750000000eb00260037006000b8000000060023
:10176000680212007f20e100020034006000b8002f
:101770001f0037006011b8007020e1000400350040
:1017800080017800010078008000eb0070025200b8
:101790000400e00009003400f00312000719dd0026
:1017a0008419de000703dd00868171000400de007d
:1017b000070bdd00060070008408de00f7ff27003d
:1017c000838363008703710006002800030363001e
:1017d000070032000700e00003003a0061016000ea
:1017e00002817300020032001000b0000180b000de
:1017f0000500a6000000060001f0a00000000600a1
:101800004f0ade004709de00f107b200f20fb20016
:101810000b003200f207b1000170a000c708dd0024
:10182000c901de00838070004700dd000400a600cf
:101830000000060060001000e080180000000600b4
:10184000810f700001003a00000006008182cf0085
:101850000500e00010003e008082cf00ee824200d2
:101860007028e1000400390007003e008000780085
:101870000000eb000e003700708312008600de00cf
:101880000500dd000a003700708352008600dd008d
:101890000000eb0006003700e28252008508dd0000
:1018a000708312000603de00868070000500dd00f4
:1018b0007507b0000501ea000400a600000006005c
:1018c00060001000e080180000000600889fbe0045
:1018d0008a9fbe00008270000402710004827100c1
:1018e000260032000004be000200be006011b800f5
:1018f0006b092000950220000182cf000a00390008
:101900000541b1000082cf00070039000541b10058
:101910000982cf00040039000541b1000882cf00e0
:10192000010039000541b1000542520012003200a9
:101930000a003b0082817100610164008100d100d6
:101940000080d3008984d3000884d3008b05e8008d
:101950000442e800f7ff3a0007003700080444009b
:1019600089844c0000004800818048008b05e90014
:101970000442e900f9ff3a00030007004f05be00ea
:101980004f04be0000000600810020006180550069
:101990000b003d000b00200061fe2f000100e10064
:1019a0001d00340082817100610164008904d1004e
:1019b0000884d3000000e800faff3a00710020001c
:1019c0006100640003007000020060000900320042
:1019d00061044400e0844c000988a5000500320041
:1019e0008b05e8006808e10002003a008904d10094
:1019f0000884d300f20f20000258e10005003d00ea
:101a0000c75ddd00f907b200898075000800780025
:101a1000000006000bf827008b007800000005008e
:101a20000000fa0068815700cfb89700e088800076
:101a300010007800f00107000080fa0000000600a6
:101a40000d000700660007001901070041010700ab
:101a50009a00070067020700120237000000060024
:101a60002012210000000600fdff07000089880009
:101a7000f088880000000600ec874700889fbe00c1
:101a80008a9fbe008c9fbe008e1f780000067800e3
:101a90000104780018079000280590009806780047
:101aa000cdb79f00b80590003202be002203be00f1
:101ab0000400be000601be004f18de006011b80031
:101ac0008000eb00d0b79f00e1b79f00f2b79f0006
:101ad00083bf9f00800478000900e0000600320008
:101ae0006000b8006011b800040250008582580000
:101af00006035900878359000e00e00002003500fc
:101b00000d10a100cdb79f000900e00005003a00cc
:101b10004fb097000028a30002003a000038a3004d
:101b2000020032008a00e900010037008a007800d4
:101b3000f8815700a2002000080078008900070003
:101b40000900e00003003a00cfb097000128a3008d
:101b5000080032000000e90000814500b1c2b30076
:101b60000900e00001003200d1c2b3000149780051
:101b7000060037000138a300040032000000e9002d
:101b80008080450002c2b30082487800480190007e
:101b90000201e90000015100808045004fb297002a
:101ba0008a0178000c0078005d0207009c0090001c
:101bb0000188a3000400320098009000810f5000bb
:101bc00001003d00010078004f0778004f06be007d
:101bd0004f05be004f04be00cf00b100000006005c
:101be0000200fa00889fbe008a9fbe008005780030
:101bf0000104780002007800180190002805900088
:101c000098007800b1bf9f00b80490000200e00087
:101c1000020035000110a100b1bf9f00ea8157000a
:101c2000820020008a0078003002be002003be003f
:101c3000080078004b0007003fb99700f0006100f2
:101c4000040032000000e9008080440002c3b300b9
:101c5000824878003fb99700e80061000400320034
:101c60000000e9008080440002c2b300824878008e
:101c7000480190000201e900000151008080440009
:101c80003fba97008a0178000b0078002402070011
:101c90009b0090000188a30004003200980090008f
:101ca000810f500001003d00010078004f05be008b
:101cb0004f04be000080fa0000000600ea874700db
:101cc000889fbe008a9fbe008e1f780000047800a7
:101cd000030078007287570084e2260055c726006b
:101ce000049fbe00c3962200030f78006c87570044
:101cf000004feb0011059000a104900091057800c1
:101d00000200e00002003200020778000100370004
:101d1000728757000000e00002003a000e007800d1
:101d2000cd0407000a00e000030035008a0f5000d0
:101d3000010036000a0078000b0278008901780063
:101d4000000178008e00780008007800f401070098
:101d50004f0778004f05be004f04be00af00b10032
:101d600000000600f4874700889fbe008a9fbe00df
:101d70008c9fbe008e1f78000605be000404be00c6
:101d800081bf9f0082b79f00f3b79f00b000900013
:101d9000e1b79f001301780092b79f009006900072
:101da000400090000000e900000678000d00e0000f
:101db00001003d001d002000efb1970000804100b0
:101dc0000048eb001e0020001f0037000c06e90051
:101dd0000fb09700cf80de006109b900a0b79f0067
:101de000b1b79f00c2b79f00d3b79f000203be00e8
:101df0000002be000800be000a01be00b0050700d8
:101e000000077800efb097000c80400003c3b300d8
:101e1000034847008d06e9000fb897000000e9006d
:101e200080bf9f002fb29700bfb297004fb39700bb
:101e3000dfb397000800be000a01be009905070045
:101e40000205be000004be000c00e0000d003400de
:101e5000e00f5400e08f5c00e00f5d00e08f5d005c
:101e6000daff3a000d00e000d8ff3c008fb8970081
:101e70000100e000030034001fb197000218a30026
:101e8000d2ff3a000e00e00002003a00ffb19700d6
:101e90001340a1000c0078004f0778004f06be00e9
:101ea0004f05be004f04be004f01b1000000060008
:101eb0000200fa00889fbe008a9fbe0000057800dd
:101ec000010478000200780018019000a804900036
:101ed00098007800b1bf9f00b80590000200e000b4
:101ee000020035000110a100b1bf9f00ea81570038
:101ef000a2002000890078003002be002003be004e
:101f00000800780097ff0700480190000201e900ef
:101f100000015100808045003fba97008901780098
:101f20000a0078007e0107009a0090000188a30053
:101f30000400320098009000810f500001003d0025
:101f4000010078004f05be004f04be000080fa007b
:101f500000000600fa874700889fbe008a9fbe00e7
:101f60008c9fbe008e1f78008004780001047800ea
:101f70008205780018019000280590001807780065
:101f8000b80090000200e000020035000e10a10031
:101f9000010037001200200070006700e0b79f00ca
:101fa000090032003b02be002b03be00e00f5200ce
:101fb000e08f5a00e00f5b00e08f5b000200320010
:101fc0008a86e900010037008a067800e802670087
:101fd000f5b79f00010032008d06e9003b02be000c
:101fe0002b03be00e4af9f00f5af9f0086b79f00b4
:101ff00097b79f00480690000c06e9000c8040004f
:102000000048eb00efb297007fb297008903780099
:1020100081047800d8af9f00020478008bbf9f0036
:102020008a057800034578002b0037000c06e9008c
:102030006fab97006f006300e90f500002003c0097
:102040000003b000010037007005b0000a03fb0078
:102050001604b100f90f53000c003e000003780095
:102060000650a0001606b100f90f530007003e000d
:10207000b4b79f00a5b79f00c7b79f001f04070014
:10208000cfb39700afb297003fb297000c834400e4
:10209000004b78000804e9008d06e9006fa897005e
:1020a000ffa897000fb197009fb19700460020004e
:1020b0008301d1000281d3008180d3000080d3004e
:1020c0000603e900faff3a00e0af9f00f1af9f007e
:1020d00082b79f0093b79f00e10f56000f003400b6
:1020e0006fa89700ffa897000fb197009fb19700c6
:1020f000e00f5000e08f5800e00f5900e08f5900ca
:10210000caff3a000800e000c8ff3c000d00e000f4
:10211000020034000e18a300c4ff3a0089007800c2
:10212000f4b79f00870478005fac97008a4178007d
:102130000b0578008fbd97000500e000120032000b
:102140003b02be002b03be00e4af9f00f5af9f0033
:1021500086b79f0097b79f00e00f5200e08f5a00ac
:10216000e00f5b00e08f5b00070032000c06e90027
:102170000c804000034878000c06e9000c80400009
:1021800002c3b30002487800ffb297000500e000e8
:10219000040032000c06e9000c80400002c2b300cb
:1021a00002487800480190000201e9000c0151004a
:1021b0008c8040000e0278008a01780009007800c7
:1021c000d7000700990090000188a30004003200a6
:1021d00098009000810f500001003d000100780040
:1021e0004f0778004f06be004f05be004f04be00eb
:1021f000af01b100000006000200fa00881f78005d
:1022000000047800e2bf9f00648157000800780056
:1022100085020700980090000148a30001003200e9
:102220000080eb004f0478000080fa0000000600f8
:10223000889fbe0000047800480090008204780067
:10224000808f540001003600800478000901780076
:102250005800900015030700580090000900400046
:1022600050049800c80090008984500049049800e8
:102270000048eb004f04be0000000600100078008c
:10228000eef93700900190000388a30001003200ae
:10229000e7ff37000348a30001003a00f7ff0700fb
:1022a0000000060084082000848f50001d003200ca
:1022b0000d003c0014082000848f500027003200dd
:1022c00002003c000408200004003700240820001d
:1022d000848f50003400320044082000848f500066
:1022e00043003a0036003700040a2000848f500073
:1022f0002700320004003c0004092000848f5000b5
:102300003b003a0028003700020c2000828f50006a
:102310002f003200020f2000828f500034003a005c
:102320002b0037009380e9000200e0000500320036
:10233000810978001102fb00cfa2de00612bb900f9
:102340002800370081097800114278000482fb00e0
:102350008002eb006033b8002200370013027800df
:10236000e40052000200e00005003200810978001c
:102370001102be004fabde00860378001900370063
:10238000810978001102be006033b80015003700e3
:102390009380e9008109780011027800cfa2de0065
:1023a000612bb9000f00370093027800e8805200db
:1023b000810978003102be002103be000900370008
:1023c0009380e9000200e00002003200f1ff3700d4
:1023d0009380e90081097800110278008002eb0007
:1023e0006033b8000498be000690be0010000500df
:1023f0000000050044082000848f500025003200b2
:1024000008003c0014082000848f500014003200a3
:1024100024082000848f500024003200040820008b
:102420000c00370004092000848f50001f00320088
:1024300004003c0084082000848f500024003a00ef
:102440000e003700040a2000848f50001100320073
:10245000040c2000848f50001d003a000d0037004e
:102460009380e900810978009100780001087800e4
:10247000cf91de008288be00140037009380e9000f
:10248000810978009100780001087800824878007e
:102490000e0037009380e9008109780091007800f0
:1024a0000108780082087800080037009380e9006e
:1024b0008109780091007800010878006112b90064
:1024c000612bb9008498be008690be001000050004
:1024d00000000500889fbe000004780048009000be
:1024e00082047800808f5400010036008004780058
:1024f00009017800580090006c0207005800900015
:102500000900400050049800c800900089845000e1
:10251000490498000048eb004f04be00000006008c
:10252000f2874700889fbe008a9fbe008c9fbe0036
:102530008e1f78008004780001057800020478007e
:10254000830578006107620002003a008b0f540097
:1025500008003900080178008a0078000900780036
:1025600048ff07008b0f54000200390088057800ef
:102570001e003700088655000c017800f00f560049
:102580000100360002012000010220007e80570079
:102590004d0207008c06780005003700020120007c
:1025a000fe8057000900780036ff0700f0865600cd
:1025b000ef8f5600f9ff3e004461de0000ff2f0060
:1025c0008091b9000c014100fe805700090078009d
:1025d0002cff07000e00e00004003a00080178001c
:1025e0008a0078000900780026ff07000b007800b9
:1025f0004f0778004f06be004f05be004f04be00d7
:102600002f01b100000006000000050000000500d9
:1026100000000500000178000040eb008080fb0016
:1026200081804000631821008181410013427800bd
:102630000404e00004003a0070182100810040000a
:10264000114078000000060092017800934f52007c
:1026500005003a0070182100810040001140780008
:102660000309e800010037000040e800ea4f50008d
:10267000eaff360000000600f6874700889fbe008c
:102680008a9fbe008c9fbe008e1f780000057800d8
:102690000104780083057800040678000000eb0050
:1026a000c0b79f008080eb00d1b79f00e0b79f00cc
:1026b000f2b79f000008200080bf9f0098007800bc
:1026c000010078008004eb00010037008904e80075
:1026d000304178000204e0000300320053c2b3002e
:1026e000834f5100f9ff3a000900e0000400320076
:1026f000090178000a007800e2fe0700188c440007
:102700001807780050c2b3009e4f10003f013a00f6
:102710000e07e8000e0c780010003700cfb09700cd
:102720000100a0000b003700cfb097000110a000ff
:1027300008003700cfb097000120a0000500370047
:10274000cfb097000130a00002003700cfb0970053
:102750000140a000c1b79f00000ce80018007800fd
:1027600090407800b2c2b30082cf5000f1ff320037
:1027700007003c0002c2b30082cf5000f0ff3200dd
:1027800032c2b30082cf500007003a00efff37009b
:10279000d2c2b30082cf5000e0ff320002c3b300c8
:1027a00082cf5000e0ff3200a2c2b30082cf5000bf
:1027b0000d003a00000ce8001c80e900000e7800d3
:1027c00010007800e0b79f000000e0000f003d001f
:1027d000cfb097000100a200c1b79f000000ea003f
:1027e000e0b79f000900370084010700e0b79f00b1
:1027f00001003700000ce800180078009000fb0092
:102800000103b100e98f5000faff36004fb0970086
:102810000008a300020032000010a100c0b79f0012
:1028200018007800e1c2b30090cf100016003a0003
:102830008000eb00d1b79f000000e800000c78009a
:10284000a1c2b30090cf100006003a00000ce800cf
:102850001c80e900000e780010007800d0b79f00bf
:102860000900370065010700d0b79f00010037005d
:10287000000ce800180078009000fb000103b10094
:10288000e98f5000faff36000800780061ff07006a
:1028900080467800180078001000fb001002070046
:1028a00091062000810f50003800320012003c00d9
:1028b00041062000810f5000340032000a003c0025
:1028c00011062000810f5000200032003106200048
:1028d000810f5000a000320051022000810f5000f3
:1028e000bc003a00b400370071062000810f500090
:1028f000b8003c008800370001072000810f50001d
:102900005c00320007003c00e1062000810f50000f
:102910007a003200f1062000810f5000ad003a002d
:102920003900370051072000810f50002700320086
:1029300081072000810f5000420032003107200043
:10294000810f5000a3003a008f0037008d80fb00fc
:102950000c01780000fe2f000f004000f20107007c
:102960000000e000a800320018007800000ce80029
:102970009041780002fe2f000f014100f8805700bf
:102980000a00780021ff07000e0037008d80fb0051
:102990008c0178001200200000fe2f000f00400084
:1029a00040fe07000000e00097003200180ce8002d
:1029b00002fe2f000f014100f88057000a00780046
:1029c0002dfc070080844400900037008d80fb00c0
:1029d0008c0178000001eb0000fe2f000f0040008a
:1029e00030fe07000000e00087003200180ce8000d
:1029f00002fe2f000f014100f88057000a00780006
:102a00002bfd0700efff37008d80fb008c01780065
:102a10000001eb0000fe2f000f00400021fe070028
:102a20000000e00078003200180ce80002fe2f00e1
:102a30000f014100f88057000a00780068fc070089
:102a4000e0ff37008d80fb008c0178000001eb0077
:102a500000fe2f000f00400012fe07000000e00003
:102a60006900320018007800000ce80090417800fe
:102a70001c0037008c0178000001eb00010f2000e2
:102a800000fe2f000f00400006fe07000000e000df
:102a90005d003200180ce8000fb097009fb097005f
:102aa0002fb19700bfb19700e00f5000e08f5800a2
:102ab000e00f5900e08f590009003a00cfb59700a8
:102ac0006fb49700e0172100630107000b02780044
:102ad0008801780000017800e117210047003700e5
:102ae00083c7b30002fe2f000f014100f88057009a
:102af0000a00780017fd0700b2ff37000b81440081
:102b00008d80fb008c01780000fe2f000f0040003c
:102b100038fe07003c0037008d80fb000c01780078
:102b200000fe2f000f0040007f0107000000e000c2
:102b30003500320018007800000ce8009041780061
:102b400002fe2f000f014100f88057000a007800b4
:102b5000aefe07009bff370000c8b30080cf5600d1
:102b600029003a00180ce8001c80e900000e7800eb
:102b700010407800e0df9f0013002000e2fd2f00ee
:102b80000f0141000800370000c8b30080cf560095
:102b90001d003a00180ce8001c80e900000e7800c7
:102ba0008001eb0010017800f88057000a007800df
:102bb00042fc070083ff370000c8b30080cf5600f7
:102bc00011003a00180ce8004fb29700efb19700df
:102bd000080037000e0c78000000eb00c0b79f0023
:102be000e0b79f000080eb00d0b79f000002eb0031
:102bf0008401780012002000411821000a007800aa
:102c000047fe07006fff3700180ce8000900780046
:102c10004f0778004f06be004f05be004f04be00b0
:102c20006f01b100000006008200fa00889fbe001c
:102c30008a1f78000005780082047800c13f9f0059
:102c40000004eb00100037000902780088017800ca
:102c5000a2f72f000f01410081f72f008f80400065
:102c60000a00780084fe070008004000880f50002a
:102c700004003d00b0042000108d88000084eb00ab
:102c800004003700000478004f3897001004e0007b
:102c9000edff3a00080078004f0578004f04be00b1
:102ca0000080fa0000000600889fbe000004be00fd
:102cb0000000eb000800e00018003200180090004f
:102cc0000058a3000d003200d8009000680090006a
:102cd000808f500009003600b80990000001eb0019
:102ce000820078000800780003000100d8009000fe
:102cf0000080eb000100e000080032000000eb0063
:102d0000200c980060049800500498000900e0002e
:102d100002003200180078003ff707004f04be00a1
:102d200000000600889fbe000004be000000eb000b
:102d30000800e00025003200180090000058a300b1
:102d400011003200d800900068009000808f500081
:102d500009003600b80990000001eb0082007800fd
:102d60000800780003000100d80090000080eb000c
:102d70000100e000150032000000eb00200c98007c
:102d80006004980050049800780a900008109000a1
:102d9000800f520006003100000252001100200096
:102da000cfa2de00612bb9001800780039000700bf
:102db0000000eb0000149800700c98000900e0007f
:102dc000020032001800780013f707004f04be001d
:102dd00000000600800078001000200002022000a1
:102de000828f500004003200e9805000e48f5000d0
:102df000010036000000eb0000000600889fbe00c6
:102e00008a1f7800000578000a047800984478004a
:102e10000805e8000900fb00eeff07000000e000e5
:102e2000f9ff3a00b0c2b30080cf54000500320071
:102e3000d0c2b3008000eb0080cf540005003a0000
:102e4000020037008000eb00010037001100200075
:102e50000804e8000000eb0003003700ea00b900b6
:102e6000020050000003b0003801fb0003fd2f00fa
:102e700082814100e98f5100f8ff36000100e00037
:102e800001003a000000ea004f0578004f04be0040
:102e900000000600a0fd2f00f1ff2f0086000700b4
:102ea0004f89de0082017800000006008001780072
:102eb00002003700b15978000201e9000200e00089
:102ec000fcff3a0000000600889fbe008a9fbe00fb
:102ed000800478000200e0005b00320001407800ce
:102ee000814c780082814400f1f99f00e20f51008b
:102ef0005500360091449800a1449800e1f99f00e4
:102f0000d1f99f00e60f51004f003600b144980000
:102f1000c1f99f00e80f51004b0036000905ea0097
:102f2000630565000a8444000a055100c1ff2f00b3
:102f3000010565000080fb008000eb0012102000fe
:102f400013102000b8000700008cbe000a014400e6
:102f500060b99f0071b99f00e80f55003a00360034
:102f6000200498003104980040049800510498000f
:102f700020b99f0031b99f0040b99f0051b99f000f
:102f8000f80f550030003600600498007104980076
:102f9000000c9800110c9800200c9800310c98003f
:102fa000400c9800510c980020b19f0031b19f0057
:102fb00040b19f0051b19f0060b19f0071b19f006f
:102fc00000b99f0011b99f006401640078014100bd
:102fd00002044400020555006011b8000203be005f
:102fe0000002be000403be006022b80000007200b0
:102ff000818072000201730083817300100037002a
:10300000009cbe000294be00400498005104980049
:103010006204980073049800000c9800110c98004a
:10302000220c9800330c9800400c9800510c98002a
:10303000620c9800730c98000a02b1000802b000fc
:10304000ff0f5500eeff3e00090078004f05be005f
:103050004f04be0000000600800078000400370026
:103060003104e00002003a000000510000000600b8
:10307000010178000108a300f9ff3a0081017800fe
:1030800031017800f4ef2f00020242000281ea00d1
:10309000020162000408280004016100f7ff320009
:1030a00083007800010178003104e000fdff3a0060
:1030b000000051000000060002002f00f3ff2f0067
:1030c000820f5000838f5800040036000000ea0091
:1030d000108d88000080eb008080eb00000006006f
:1030e000f1fb2f0080804000f98f500001003e006e
:1030f0000050a00000000600f9ff3700f1f92f0092
:1031000080804000f98f500001003e00f005b200c1
:1031100000000600f9ff37000000060052fa070021
:10312000fdff0700fcff3700881f780000047800cf
:1031300000082000808f5000170035001008200084
:10314000808f50000b00340030082000808f50002a
:1031500011003a0092007800688050000009780061
:103160003002be002003be00049cbe000694be00d8
:10317000070037009202780064805200000978004e
:103180001000be0009000700009cbe000294be00b3
:1031900010002000010037000000eb004f04780011
:1031a0000000060000c0da0000000600810378007d
:1031b0005cf607000001be006000b8000478a300c0
:1031c00013003a006220e10015003e000d003900b6
:1031d0008301d1000281d3008180d3008301d1001b
:1031e0000281d3008180d3008301d1000281d3000a
:1031f0008180d3000538b000c42add00f300b2009e
:103200008381720007f0a70003f0a0000000060011
:1032100083ff2700020020006110b900f9ff37008a
:1032200003ff2700f7ff3700020ab900001bb900af
:103230000200b80081004200810043000000060047
:10324000889fbe008a9fbe0030044200b0844a00be
:1032500030054b0090854b006000b1000898be001f
:103260000a90be000440e10005c8e10006d0e1007c
:1032700007d8e10002003100680040001008e800b3
:103280004f05be004f04be0000000600889fbe0030
:103290008a9fbe003004be002005be000418540002
:1032a00005985c0006185d0007985d00110020007d
:1032b0000440e10005c8e10006d0e10007d8e100c4
:1032c000010039008000eb00108810004f05be009f
:1032d0004f04be00000006001200fa00889fbe00e6
:1032e0008a9fbe008c9fbe00e0b79f00f1b79f0091
:1032f00082bf9f0093bf9f000605be000404be006e
:103300000000eb00d0b79f00c0b79f00b0b79f0090
:10331000a0b79f0090b79f00000678005fb19700ac
:10332000cfb09700820141003fb097000200e0005b
:1033300004003d00370007007e805700c0ff0700f3
:1033400003003700330007007e805700cfff0700df
:10335000dfb697000d00e0000c0035006fb297005b
:10336000ffb297000fbb97009fbb97001000200093
:10337000010020006011b80000027200818272001a
:1033800002037300838373001b0007000c06e80030
:1033900001042000810f5600e0ff3a000d00e0001c
:1033a00004003d000802be000a03be007e805700f4
:1033b000a3ff07005fa897000000e00005003a00a7
:1033c0001fb29700afb297003fb39700cfb39700fb
:1033d000090007006fb09700ffb097000fb9970082
:1033e0009fb997004f06be004f05be004f04be00b8
:1033f0000080fa000000060001000700000006003f
:10340000a4b79f00b5b79f00c6b79f00d7b79f006e
:10341000000006004f09de0082817100b3b79f00f3
:103420004f01de008180400082807000a1b79f00c4
:103430008fb097004f09de000000400002007000ce
:1034400090b79f007fa897004f01de008180400069
:103450008280700081b79f000d0007004f3ade00a8
:103460000000400004007000f0af9f00080007005b
:103470000402420085824a0006034b0087834b000a
:10348000dfff07000802be000a03be0000000600be
:103490002fb29700bfb297004fb39700dfb39700ea
:1034a00000000600881f780018002000881f7800a0
:1034b00089ff07008f87e9004f04780000000600ad
:1034c000801feb0084ff07008f87e90000000600e3
:1034d000889fbe008a9fbe00e00f5000e08f58001a
:1034e000e00f5900e08f59000c003d006044b80027
:1034f0006055b8000000540081805c0002015d004e
:1035000083815d00180020001500070008003d00c1
:10351000180007000004eb00050037000004eb0072
:103520000f00070002003d001200070018002000f5
:10353000dcff07000800e000060032006022b8004f
:103540006033b8000000520081805a0002015b0025
:1035500083815b004f05be004f04be0000000600e3
:10356000e00f5200e08f5a00e00f5b00e08f5b003d
:10357000000006006044b8006055b8000402540022
:1035800085825c0006035d0087835d000000060005
:10359000889fbe008a9fbe008c1f7800e00f5000fd
:1035a000e08f5800e00f5900e08f59000d003d00fa
:1035b0006044b8006055b8000000540081805c0091
:1035c00002015d0083815d001c0020000820e100f5
:1035d00009a8e1000ab0e1000bb8e1000d003d00d0
:1035e000080037000006eb00e00f5200e08f5a00a1
:1035f000e00f5b00e08f5b0006003d006044b80018
:103600006055b8000402540085825c0006035d002a
:1036100087835d00aaff07000c00e000060032006f
:103620006022b8006033b8000000520081805a0068
:1036300002015b0083815b004f0678004f05be00ee
:083640004f04be00000006006b
:020000040000fa
:103648007022000036270000ca220000e422000091
:103658001623000044230000742300008023000088
:10366800a62300008a2300007022000040270000e3
:10367800ca220000e42200001623000044230000b0
:103688007423000080230000a62300008a23000082
:10369800702200004a270000ca220000e42200002d
:1036a8001623000044230000742300008023000038
:1036b800a62300008a23000070220000542700007f
:1036c800ca220000e4220000162300004423000060
:1036d8007423000080230000a62300008a23000032
:1036e800546500006d700000657200006174000090
:1036f80075720000654300003a2000002530000084
:1037080032640000204300000a00000054650000f5
:103718006d70000065720000617400007572000031
:10372800654600003a2000002530000032640000a1
:10373800204600000a000000600000000f000000a2
:1037480000000000600100000f0000000000000001
:10375800200000000f000000000000002001000011
:103768000f00000000000000200100000f00000012
:04377800000000004d
:020000040000fa
:10377c000000fa00774ea900560307003000200025
:10378c0058030700774ea8000080fa0000000600de
:10379c000a00fa00881f780020479800210798003b
:1037ac006247980073479800044f98002e40900091
:1037bc000004e00001003200774ea9000040eb004d
:1037cc00004f7800060037001e80fb00ae00900012
:1037dc0000804000104078006b0307001e4fe8008b
:1037ec006e4090009e40780080cf5000f6ff39006c
:1037fc000040eb00004f7800070037001e80fb00f4
:10380c00ae0090000084400000c0eb005e03070097
:10381c00004c78001e4fe8007e4090009e407800df
:10382c0080cf5000f5ff39000e4890000004e000f6
:10383c0001003200774ea8004f0478000080fa0097
:10384c00000006000000fa00c019210061c0b3009e
:10385c000148780014c0b3008041eb0012c0b300e3
:10386c00c119210010c0b300c9ff07000080fa0085
:10387c00000006000000fa00c019210041c0b3008e
:10388c000148780014c0b3008041eb0012c0b300b3
:10389c00c119210010c0b300bdff07000080fa0061
:1038ac00000006000000fa00c019210001c8b30096
:1038bc000148780014c0b3008041eb0012c0b30083
:1038cc00c119210010c0b300b1ff07000080fa003d
:1038dc00000006000000fa00c019210051c0b3001e
:1038ec000148780014c0b30013c0b30012c0b30079
:1038fc00c119210010c0b300a5ff0700c019210099
:10390c00104078000080fa00000006000200fa0067
:10391c00004f7800c019210001c5b30001487800a0
:10392c0014c0b3008041eb0012c0b300c1192100d8
:10393c0010c0b30096ff0700c019210011c0b300de
:10394c0001487800d01921001e48780014c0b3003b
:10395c008041eb0022c0b300c119210010c0b3009c
:10396c008bff07000080fa00000006000000fa0040
:10397c0000000000d7ff07000080fb006100600022
:10398c00004078000004e000faff3a000080fa00e2
:10399c00000006000400fa00008fbe001e00be00ee
:1039ac004008de0080407800d019210001487800e2
:1039bc001e00be004809dd004800de00000071005a
:1039cc00c808de0080407800e0192100014878002a
:1039dc001e00780080407800f01921000148780022
:1039ec000080fa00000006000000fa0095ff0700b6
:1039fc00c019210071ccb3000148780014c0b30089
:103a0c008041eb0012c0b300c119210010c0b300fb
:103a1c005fff0700d5ff070096ff07000080fa0044
:103a2c00000006000400fa00008fbe0085ff0700ae
:103a3c00c019210001c2b300014878001e00be006d
:103a4c00d4ff070014c0b3008041eb0042c0b300a8
:103a5c00c119210010c0b3004dff0700c3ff0700c0
:103a6c0084ff07000080fa00000006000a00fa003c
:103a7c00008fbe0022079800330798004407980077
:103a8c00baff0700c0192100b1c0b300014878008b
:103a9c001e00be00bfff0700001a21008040eb0093
:103aac00014878000042eb008041eb0052c0b300ab
:103abc00c119210010c0b30035ff07002e00900083
:103acc000040780014c0b300804178000041eb0046
:103adc00ce0090000040eb002dff07000080fa00a4
:103aec00000006000600fa00100798002107980055
:103afc009eff0700c0192100b1c0b3000148780037
:103b0c001e009000ae009000a2ff0700001a2100da
:103b1c008040eb00014878000042eb008041eb0054
:103b2c0052c0b300c119210010c0b30018ff070028
:103b3c0014c0b30013c0b3000041eb008e0078003a
:103b4c000040eb0012ff07001e4078000080fa00d6
:103b5c00000006000600fa00008fbe0042479800e5
:103b6c0082ff070037ff0700c019210021c0b300f6
:103b7c00014878001e00be0086ff0700001a2100d5
:103b8c00ce4090000148780014c0b3008041eb0097
:103b9c0052c0b300c119210010c0b300fcfe0700d5
:103bac0072ff070033ff07000080fa0000000600d8
:103bbc000a00fa00100798002107980032079800b5
:103bcc004307980069ff07001eff0700c01921007a
:103bdc00d1cab300014878001e009000ae009000de
:103bec006cff07004e00900090407800001a2100f6
:103bfc00014878004e0090000000e80090407800ea
:103c0c00101a21000148780014c0b3008041eb0069
:103c1c0062c0b300c119210010c0b300dcfe070064
:103c2c0052ff070020002000000f7800160037001c
:103c3c00c0192100d1cab300014878004e00900091
:103c4c001e00400090407800d019210001487800f7
:103c5c001e00e800ce0090000080400090407800ec
:103c6c00e01921000148780014c0b3008041eb003a
:103c7c0032c0b300c119210010c0b300c4fe07004c
:103c8c003aff07001e8fe8003e0090009e0078006f
:103c9c00808f5000e6ff3900f6fe07000080fa0026
:103cac00000006000200fa00000f7800e5fe070095
:103cbc00c019210011c0b30001487800d0192100af
:103ccc008040eb000148780014c0b3008041eb0049
:103cdc0022c0b300c119210010c0b300acfe070014
:103cec00d8fe07001e007800004078008040780065
:103cfc000174a000c01921000148780014c0b30061
:103d0c008041eb0012c0b300c119210010c0b300f8
:103d1c009ffe07000080fa00000006000400fa0075
:103d2c00c0192100f1c9b3000148780014c0b300d8
:103d3c0033c0b30012c0b300c119210010c0b300ce
:103d4c0093fe0700c0192100104078000080fb0092
:103d5c008000eb00008fbe001e01be004818dd0085
:103d6c00c810de00810070004810dd00008fbe001e
:103d7c00d0192100104078000080fb008000eb007f
:103d8c001e1f70001e9770001e01be004818dd003b
:103d9c00c810de00810070004810dd00008fbe00ee
:103dac00e0192100104078000080fb008000eb003f
:103dbc001e1f70001e9770001e00be000080fa00cf
:103dcc00000006000200fa000040eb00004f7800f3
:103ddc00010037000000000065fe0700c01921003b
:103dec00f1c9b3000148780014c0b30033c0b3006c
:103dfc0012c0b300c119210010c0b30064fe07004b
:103e0c00c019210090407800f0cbb30080cf500057
:103e1c0005003a00d01921009040780050c2b30040
:103e2c0080cf5000060032001e4fe8001e40780084
:103e3c000004e000e7ff3a0010c0b30003003700b5
:103e4c000040eb00b1fe07000040eb000080fa00e0
:103e5c00000006000000fa002188a9002168a900d2
:103e6c0000082000c01188003a22ef003c22ef002d
:103e7c0020022000f011880070062000001288003b
:103e8c004222ef004c22ef004e22ef005022ef00b6
:103e9c005222ef005422ef005622ef005822ef007e
:103eac005a22ef005c22ef00400121003080880094
:103ebc0040012100208088003011210010808800f2
:103ecc0030112100008088000870ef0080f921007b
:103edc000800070060fb2100150007002168a800fe
:103eec0039e2a80038a2a8003882a8000080fa00a5
:103efc00000006000200fa00000f78001e00780097
:103f0c000000e00003003a0080f921005080880096
:103f1c00020037009e007800518088000080fa0073
:103f2c00000006000000fa000080fa000000060005
:103f3c000200fa00000f78001e0078000000e0007c
:103f4c0003003a0060fb210060808800020037000b
:103f5c009e007800618088000080fa000000060056
:103f6c000000fa000080fa00000006000200fa00cf
:103f7c000040eb00004f7800000000001180800032
:103f8c0000808000808f5000fcff32001080800089
:103f9c00104f7800108080000000e800108088002e
:103fac0011808000c0112100808f500002003a0067
:103fbc0030112100108088001e4078000080fa002b
:103fcc00000006000200fa00004f7800000000001c
:103fdc001c0007000004a2000004e000fcff3a00f3
:103fec00208080001e487800208080000000e800bf
:103ffc00208088002180800030112100808f5000ab
:10400c0002003a0040012100208088002188a8008d
:10401c000080fa00000006000000fa001180800009
:10402c00008080000080680000f0a7000000ea001b
:10403c000000ea004f00de00004078000080fa002b
:10404c00000006000400fa0031808000110798007f
:10405c00218080001e009000808f500006003100ef
:10406c009e00900020808000008050000000e9003d
:10407c00000f7800050037009e0090002080800023
:10408c0000805000e00fb000000f78001e00780098
:10409c0000f0a7000000ea000000ea004f00de007c
:1040ac00004078000080fa00000006000000fa00d2
:1040bc002180800030808000808f500009003a0001
:1040cc00e1118000000820000080600000f0a700d3
:1040dc000000ea000000ea004f00de00004078001b
:1040ec00010037000040eb000080fa0000000600e1
:1040fc000400fa00018080001107980010808000f5
:10410c009e009000808f5000060031009e009000b1
:10411c00108080000080500069004000000f780083
:10412c00030037009e00900010808000008f50002c
:10413c00f00f20009e007800808f500002003600a7
:10414c0000c0eb00020037001e0078000040780031
:10415c000080fa00000006000400fa0031808000a4
:10416c0011079800218080001e009000808f500065
:10417c00060031009e0090002080800000805000de
:10418c000000e900000f7800050037009e00900049
:10419c002080800000805000e00fb000000f7800fd
:1041ac00f00f20009e007800808f50000200360037
:1041bc0000c0eb00020037001e00780000407800c1
:1041cc000080fa00000006000800fa0020079800a2
:1041dc0031079800c6ff07000080fb00000f780035
:1041ec003e0090009e0f500002003100be00900077
:1041fc00010f78000000eb00100798000900370051
:10420c005aff0700ae009000804878002e00900006
:10421c000000e800200798001e0090000000e80055
:10422c00100798001e0090009e0f5000f4ff3900fc
:10423c001e0078000080fa00000006000800fa005a
:10424c002007980031079800c3ff07000080fb008f
:10425c00000f78003e0090009e0f500002003100cd
:10426c00be009000010f78000000eb0010079800d2
:10427c00090037002e00900010407800ae0090002e
:10428c008100e800210798004eff07001e009000f7
:10429c000000e800100798001e0090009e0f5000d0
:1042ac00f4ff39001e0078000080fa0000000600c0
:1042bc000400fa000000eb00000f78008cff0700f0
:1042cc0020479800a4ff0700304798002e4090002c
:1042dc000080fb000000e00003003200e90f5000fa
:1042ec0003003200040037001e20a0000400370039
:1042fc001e00a000020037001e10a00000000000ed
:10430c003e4090000080fb000000e0000300320003
:10431c00e90f500003003200040037001e30a000eb
:10432c00020037001e40a000000000001e007800b4
:10433c000080fa00000006000400fa001007980044
:10434c00118080001e009000008f4000020037009a
:10435c009e007800698f5000c01121009e007800eb
:10436c00808f5000faff3e001e007800104078004d
:10437c000080fa00000006000000fa005cff070055
:10438c000080fb000000e9004f00de0000407800d8
:10439c000080fa00000006000000fa006eff070023
:1043ac000080fb000000e9004f00de0000407800b8
:1043bc000080fa00000006000400fa00f0118000f2
:1043cc008000eb00008fbe001e00be00c001dd00af
:1043dc0002002000e01180008000eb000000710062
:1043ec00818071000080fa00000006000000fa00d5
:1043fc0059ff07000004e0001000320031808000fb
:10440c0020808000808f50000600360030808000b5
:10441c008000780020808000008050000000e900bf
:10442c0007003700308080008000780020808000fa
:10443c0000805000e00fb000010037000000eb00de
:10444c000080fa00000006000000fa0028ff0700b8
:10445c000004e00010003200118080000080800019
:10446c00808f50000600360010808000800078009d
:10447c0000808000008050000000e9000700370039
:10448c001080800080007800008080000080500048
:10449c0068004000010037000000eb000080fa00cb
:1044ac00000006000000fa0039e2a80038a2a800bb
:1044bc003882a8000080fa00000006000000fa0014
:1044cc0039e2a90038a2a9003882a9000080fa00bc
:1044dc00000006000000fa00ade2a9000080fa001e
:1044ec00000006000200fa00000f78006115800041
:1044fc0000002800008060000000e0001f003a006f
:10450c001e007800e600b9008000780000ba29008f
:10451c000080400010007800601588001e007800b4
:10452c00e600b9008080e80000ba29000080400055
:10453c0010007800e01588001e007800e600b90035
:10454c00e400400000ba29000080400010407800d0
:10455c00614060000080fb00610060004800dd00ed
:10456c00b17280000180a10001007000b07288005f
:10457c00ade2a80010c0b300010037000040eb0012
:10458c000080fa00000006000200fa00004f7800dc
:10459c001e80fb00c015880000000000a0158000e4
:1045ac00610060000000e000fcff3200c0158000dc
:1045bc00004078000080fa00000006000600fa00b7
:1045cc0010079800210798009e009000010f7800ba
:1045dc00060037001e00780010407800eaff070044
:1045ec009e007800804878001e0fe8002e00900096
:1045fc0000f0a7000000ea000000ea004f00de0017
:10460c0000407800ae0090008100e900210798007e
:10461c000004e000efff3a000080fa000000060002
:10462c000600fa0010079800210798009e009000e1
:10463c00010f7800040037001e007800104078004d
:10464c001e0fe800d0ff07002e00900000f0a7001e
:10465c000000ea000000ea004f00de000040780095
:10466c00ae0090008100e900210798000004e000f2
:10467c00f1ff3a000080fa00000006000600fa0084
:10468c0010079800210798009e009000010f7800f9
:10469c00050037000040eb00bbff07009e007800d0
:1046ac00804878001e0fe8002e00900000f0a70054
:1046bc000000ea000000ea004f00de000040780035
:1046cc00ae0090008100e900210798000004e00092
:1046dc00f0ff3a000080fa00000006000200fa0029
:1046ec00004f78001e80fb00c01588000080fa0087
:1046fc00000006000000fa00c015800000407800a1
:10470c000080fa00000006000000fa000140800062
:10471c0000202000008060000000e0000600320055
:10472c00808080000000e000020032008080800069
:10473c00000001000128a9000080fa00000006001a
:10474c000200fa00000f78009e007800818088003b
:10475c000080fa00000006000000fa00007c8000d7
:10476c000080fa00000006000200fa00faff0700c1
:10477c00000f78001e007800240007000004e00001
:10478c000200320000002800710007001e007800b3
:10479c002a0007000004e0000200320000002400a0
:1047ac006b0007001e007800320007000004e000d8
:1047bc000200320000202000650007001e00780077
:1047cc003a0007000004e00002003200000820005c
:1047dc005f0007001e007800420007000004e000a4
:1047ec000200320000042000590007001e0078006f
:1047fc004a0007000004e000020032000001200023
:10480c00530007000080fa00000006000400fa00c4
:10481c00100798000040eb00004f78001e0090003d
:10482c000000e00002003d0010c0b300004f780013
:10483c001e4078000080fa00000006000400fa0018
:10484c00100798000040eb00004f78009e0090008d
:10485c0000002400008060000000e0000200320034
:10486c0010c0b300004f78001e4078000080fa00a2
:10487c00000006000400fa00100798000040eb004e
:10488c00004f78009e009000002020000080600007
:10489c000000e0000200320010c0b300004f7800ae
:1048ac001e4078000080fa00000006000400fa00a8
:1048bc00100798000040eb00004f78009e0090001d
:1048cc0000082000008060000000e00002003200c0
:1048dc0010c0b300004f78001e4078000080fa0032
:1048ec00000006000400fa00100798000040eb00de
:1048fc00004f78009e0090000004200000806000b3
:10490c000000e0000200320010c0b300004f78003d
:10491c001e4078000080fa00000006000400fa0037
:10492c00100798000040eb00004f78001e0090002c
:10493c00700060000000e0000200320010c0b30004
:10494c00004f78001e4078000080fa00000006003e
:10495c000200fa00000f78009e80ea00007c8000c4
:10496c0000806000007c88000080fa0000000600d7
:10497c000000fa00802fef000080fa000000060013
:10498c000000fa00062eef00222eef003e2eef0064
:10499c005a2eef00762eef00f001200010708800e8
:1049ac00d0ff2f00f0708800e0ff2f00d07188003e
:1049bc00f0ea2f00b0728800f0bf2f0090738800cf
:1049cc000c2eef00282eef00442eef00602eef008f
:1049dc007c2eef000a2eef00262eef00422eef0069
:1049ec005e2eef007a2eef00082eef00242eef0043
:1049fc00402eef005c2eef00782eef00f00120002f
:104a0c0000708800d0092000e0708800e00c2000c5
:104a1c00c071880000c02200a0728800f000200045
:104a2c00807388000000eb0051052000b14688001f
:104a3c00a10a2000b146880000688800216d800022
:104a4c0000fc2f00008060000000a000206d88009a
:104a5c0070c4b3002cedb700316d800000fc2f004a
:104a6c00008060005000b300306d880030c4b3008b
:104a7c0028edb700416d800000fc2f000080600025
:104a8c006000b300406d88000080200051052000bc
:104a9c00b1468800a10a2000b14688000068880051
:084aac000080fa000000060082
:020000040000fa
:104ab4005e11000020000000800000000e100000c5
:104ac4000200000082000000ffff0000141000003c
:104ad4000801000080000000001000000e0000002b
:104ae40080000000101000000200000080000000a0
:104af4009c1100000600000080000000121000005d
:104b040002000000800000001c11000042000000b0
:104b14008200000020112200112211000100030074
:104b240000000000000000000000000000009200ef
:104b34001600000000000000003e11002e0d0000d1
:104b44000000000000000000000000000000000061
:104b54000000000000000000000000000000000051
:104b64000000000000000000000000007e110000b2
:104b74001e00000082000000286e69006c290000fd
:104b840025006800076c09004c836a009074a0003b
:104b94007ac000008068880000846c008200810074
:104ba400a2110000020000008000000000000000cc
:020000040000fa
:104bb4000000fa003a0ea9003e0ea8000080fa0098
:104bc400000006000400fa000000eb00000f78006b
:104bd4003e0ea9000032200001002000fd00070065
:104be40000c0eb006afe07002047980000c0eb00fd
:104bf40067fe0700304798003e0ea8002e40900044
:104c04000080fb00c800dd003e4090000080fb00f7
:104c140001007000000f78009e007800648060003e
:104c24000000e000020032000080eb000b003700bf
:104c34001e0078004300de00000f78001e0078009c
:104c44008000eb00b4ef07000200200003e823001b
:104c540095f1070095ef0700000078000080fa0046
:104c6400000006000000fa00d6ff07008000eb00f9
:104c7400a9ef070002002000031124008af10700b5
:104c840002002000030a2400a8f00700020020000c
:104c940003202400c0ef070084ef07000000780021
:104ca4000080fa00000006000800fa00a8000700cf
:104cb40046fc0700c3ff0700000f78001e007800c1
:104cc400e10f400017003200001020000100200016
:104cd40056fb07001e007800004078000041780071
:104ce40000102000010020009cfb070000102000a1
:104cf400010020007dfb07000080fb0010079800e6
:104d04009e009000811f780040b72900801f780022
:104d140042f30700e487570000902000d1032000ed
:104d2400ac00070000092000010020003ffb070041
:104d3400ccff0700200798002e0090000040780068
:104d440000417800000920000100200083fb0700d7
:104d5400000920000100200064fb07000080fb0024
:104d640030079800be009000811f7800a0b8290089
:104d7400801f780029f30700e48757000090200083
:104d8400d103200093000700caff37000000fa0097
:104d940010002300307c880060092000407c8800db
:104da4008c2fef0010042000507c8800101020008d
:104db400707c880060092000807c8800100420003a
:104dc400907c88009a2fef00b82fef00ba2fef00e5
:104dd400be2fef00002def00a02fef00a42fef0057
:104de400a62fef00a82fef00aa2fef00ae2fef00a1
:104df400b02fef00b22fef007200200080072000d8
:104e0400a109200053f820008049780081497800e6
:104e1400824978000001eb00600420007105200045
:104e240043f820008049780081497800824978005d
:104e34000080fa00000006000000fa00707c800088
:104e4400ee800a00000000000080fb0000f0a700d4
:104e54000000ea000000ea004f00de000040780095
:104e64000080fa00000006000000fa000000eb00d9
:104e74009efd07000080fa00000006000000fa0012
:104e84001000200099fd07000080fa0000000600d1
:104e94000000fa002000200094fd07000080fa00c2
:104ea400000006000000fa00300020008ffd07001b
:104eb4000080fa00000006000200fa00000f7800eb
:104ec4001e007800e10f500009003200e10f50008d
:104ed40005003900e20f500007003200e30f5000d4
:104ee4000700320008003700dfff07000700370023
:104ef400e2ff070005003700e5ff07000300370065
:104f0400e8ff0700010037000040eb000080fa00d2
:104f1400000006000200fa00000f78002102800061
:104f2400200f2000008060001e0070002002880016
:104f34000080fa00000006000000fa00c3e8a800a0
:104f440000000000000000000080fa0000000600dd
:104f54000000fa008cfe07008cff07000600070023
:104f6400befb0700f4ff070000022000e9ff070072
:104f74000080fa00000006000000fa00f1448000fe
:104f8400f0f82f00008060000040a000f04488008a
:104f94003142800080ff2f00008060000000a000ec
:104fa40030428800c1428000f0f82f000080600089
:104fb4000040a000c042880021428000f0ff280089
:104fc4000080600000c0a000204288000080fa0039
:044fd40000000600d3
:020000040000fa
:104fd800f03fb1000180b10006003500ee03090082
:104fe80000000000403fb1000180b100fbff3d0020
:104ff8001000b000203fb00002003500008009001a
:0850080000000000000006009a
:020000040000fa
:105010000200fa00000f78009e007800718088007e
:10502000ffff37000000fa00e0152100800778003c
:1050300060172100000188000080fa0000000600cf
:020000040000fa
:020000040005f5
:047e0000ffffff0081
:020000040000fa
:020000040005f5
:047e2000ffffff0061
:020000040000fa
:020000040005f5
:047e30007fffff00d1
:020000040000fa
:020000040005f5
:047e3800bfffff0089
:020000040000fa
:020000040005f5
:047e40007f7fff0041
:020000040000fa
:020000040005f5
:047e4800ffffff0039
:020000040000fa
:020000040005f5
:047e5000dfffff0051
:020000040000fa
:020000040005f5
:047e58000000ff0027
:020000040000fa
:020000040005f5
:047e60000000ff001f
:020000040000fa
:020000040005f5
:047e68000000ff0017
:020000040000fa
:020000040005f5
:047e70000000ff000f
:020000040000fa
:020000040005f5
:047e7800ffffff0009
:020000040000fa
:020000040005f5
:047e8000fffcff0004
:020000040000fa
:020000040005f5
:047e8800ffffff00f9
:020000040000fa
:020000040005f5
:047ff800ffffff0088
:020000040000fa
:020000040100f9
:04300000ffffff00cf
:00000001FF
